:1000000000100020BD350000F7350000E535000088
:1000100000000000000000000000000000000000E0
:10002000000000000000000000000000F7350000A4
:10003000000000000000000061060000A5060000AE
:10004000F7350000F7350000F7350000F735000000
:10005000F7350000F7350000F7350000F7350000F0
:10006000F7350000F7350000130300001D03000002
:100070002703000031030000F7350000F7350000CA
:10008000F7350000F7350000F7350000F7350000C0
:10009000F7350000F7350000F7350000F7350000B0
:1000A000F7350000F7350000F7350000F7350000A0
:1000B000F7350000F7350000F7350000F735000090
:1000C000F7350000F7350000F7350000F735000080
:1000D000E1020000EB020000F7350000F7350000F8
:1000E000F7350000F73500003B0300004703000030
:1000F000F7350000F7350000530300005F030000F0
:10010000F5020000FF020000F7350000F73500009F
:10011000F7350000F7350000F7350000F73500002F
:1001200009030000F7350000F7350000F73500003F
:10013000F7350000F7350000F7350000F73500000F
:10014000F7350000F7350000F7350000F7350000FF
:10015000F7350000F7350000F7350000F7350000EF
:10016000F7350000F7350000F7350000F7350000DF
:10017000F7350000F7350000F7350000F7350000CF
:10018000F7350000F7350000F7350000F7350000BF
:10019000F7350000F7350000F7350000F7350000AF
:1001A000F7350000F7350000F7350000F73500009F
:1001B000F7350000F7350000F7350000F73500008F
:1001C000F7350000F7350000F7350000F73500007F
:1001D000F7350000F7350000F7350000F73500006F
:1001E000F7350000F7350000F7350000F73500005F
:1001F000F7350000F7350000F7350000F73500004F
:10020000F7350000F7350000F7350000F73500003E
:1002100010B5054C237833B9044B13B1044800E002
:1002200000BF0123237010BDE0110020000000007A
:10023000FCA90000074B10B51BB10749074800E0B7
:1002400000BF0748036803B910BD064B002BFBD065
:100250009847F9E700000000E4110020FCA9000025
:10026000DC11002000000000164B002B00D1144BC5
:100270009D46402292029A1A924600218B460F46D2
:100280001348144A121A06F001F90F4B002B00D044
:1002900098470E4B002B00D0984700200021040007
:1002A0000D000D48002802D00C4800E000BF06F009
:1002B000B1F82000290003F0EFFF05F015FFC0465C
:1002C00000000800001000200000000000000000F6
:1002D000E011002004D70220000000000000000010
:1002E00010B5002005F072FB10BD10B5012005F01F
:1002F0006DFB10BD10B5022005F068FB10BD10B5F8
:10030000032005F063FB10BD10B5002005F016F8C2
:1003100010BD10B5002005F0C9F810BD10B50120C2
:1003200005F0C4F810BD10B5022005F0BFF810BDEF
:1003300010B5032005F0BAF810BD10B5002100205B
:1003400005F092F810BD10B50121002005F08CF8E1
:1003500010BD10B50221002005F086F810BD10B5C3
:100360000321002005F080F810BD0000124A530759
:100370001FD0D11D0723994380239B025B1A9B1832
:100380000A000E48026000214160D318083B072094
:1003900083430B48036059601960991A51601360D8
:1003A000084B1960084B196080221206074B1A602F
:1003B000704780239B02E4E7001200201412022001
:1003C000FC11002008120220041202200012022058
:1003D00010B5124B1A68824219D359685C18A042B2
:1003E00003D1406809185960180041684418A242B6
:1003F00011D10B4C2468A2420BD05268891841607D
:100400001A6812680260984200D0186010BD13008C
:10041000E0E70460F7E70260F5E7C0461412022047
:10042000FC11002070B5040001F042F8384B1B6845
:10043000B3B1384B1B682340002B5BD19CB121002A
:1004400008318C4210D24A0717D007220800904387
:1004500002000832914207D2530710D072B6FEE76D
:10046000FFF784FFE5E72300002B45D02A4A1268F6
:10047000934243D8294A146805E00B00F4E71300BF
:10048000F2E722000C0061688B4202D92168002942
:10049000F7D11F4909688C4232D0156808352168A8
:1004A00011606268D21A102A08D9E018410701D0F9
:1004B00072B6FEE742606360FFF78AFF6268164922
:1004C0000B689B1A0B60164909688B4201D21449CC
:1004D0000B60104B1B681343636000232360114AB9
:1004E00013680133136001F0B1F85DB16B070CD0F4
:1004F00072B6FEE70025F6E70025F4E70025F2E7EF
:100500000025F0E703F09EF9F0E7280070BDC04633
:10051000FC110020001202200412022014120220FA
:10052000081202200C12022070B518B30500083D15
:100530006B68114A12681A4201D172B6FEE70100D7
:100540000839096809B172B6FEE708380400934318
:10055000436000F0ADFF6368084A11688C4663444D
:1005600013602800FFF734FF054A13680133136056
:1005700001F06CF870BDC046001202200412022087
:100580001012022082B000230193064B1B68013336
:1005900001D072B6FEE772B6019B002BFCD002B010
:1005A0007047C0460010002000000000000000005E
:1005B0000B4A13681868203080F30988022080F302
:1005C0001488BFF36F8F3FBCAE4608BC04BC62B654
:1005D0001847C046C046C046C046C046C046C04692
:1005E0001C12022010B5031F802464041C60043B0D
:1005F0001960043B02491960143B1A60403810BD71
:100600008505000080225205034B1A60BFF34F8F0F
:10061000BFF36F8F7047C04604ED00E072B6044A26
:10062000136801331360BFF34F8FBFF36F8F7047B1
:1006300000100020054B1B680BB972B6FEE7013BAA
:10064000024A136003B962B67047C046001000202A
:10065000EFF3108072B6704780F310887047000087
:10066000EFF309800E4B1A6820381060F0C0444642
:100670004D4656465F46F0C008B572B601F09EF88A
:1006800062B60CBC116808681030F0C8A046A946D4
:10069000B246BB4680F309882038F0C81847C046E8
:1006A0001C12022010B5FFF7D3FF040000F00EFF6C
:1006B00018B180225205034B1A602000FFF7CCFFCF
:1006C00010BDC04604ED00E0084A0023136008494D
:1006D0000B60084B1B6840F2F411B3FBF1F3013BD4
:1006E00005490B60072313607047C04610E000E027
:1006F00018E000E01010002014E000E010B50C4BF2
:100700001968FF2212040A431A601968FF221206B0
:100710000A431A60FFF7D8FF0022064B1A60FFF762
:1007200047FF01F04BF8FFF72DFF002010BDC0463A
:1007300020ED00E000100020030008334360012298
:1007400052428260C360036100230360704700234C
:100750000361704730B50C68631C02D00200083298
:1007600002E0026904E01A0053681D68AC42FAD244
:1007700053684B6099608A60516008610368013377
:10078000036030BD03694268816891608268416896
:1007900051605A68904206D0002202611A68013AFC
:1007A0001A601868704782685A60F5E7436A23B197
:1007B000036B1B680820C01A70470020FCE710B5C7
:1007C0000400FFF72BFFA26BE36B9A4204D00024D6
:1007D000FFF730FF200010BD0124F9E710B5040039
:1007E000FFF71CFFA36B23B10024FFF723FF2000BA
:1007F00010BD0124F9E770B504001600856B026C8A
:1008000052B90368002B2CD1806801F08FF90023C6
:10081000A3600135A56370BD76B9406805F02DFE73
:100820006368226C944663446360A26893421AD35F
:10083000236863600020ECE7C06805F01EFE236CAF
:100840005B42E268D218E26021688A4203D2A26861
:1008500094466344E360022E07D145B1013D002078
:10086000D7E70020D5E70020D3E70020D1E700201C
:10087000CFE770B582B00190846C2CB1A26BE36BB2
:100880009A4203D372B6FEE772B6FEE7A26B9342BA
:1008900003D80026300002B070BD4523E55C6DB280
:1008A000002201A92000FFF7A6FF06006B1C0AD159
:1008B000636A002BEED02000243001F00FF80028EE
:1008C000E8D00126E6E77F2D01D172B6FEE70135BB
:1008D0006DB24523E554DDE710B50C00026C5AB14A
:1008E000C3689B18C36081688B4201D30368C360EF
:1008F000C168200005F0C1FD10BD70B50500FFF70F
:100900008DFE4523EC5C64B208E06B6AB3B128004D
:10091000243000F0E3FF70B9013C64B2002C0DDD1F
:10092000AB6C002BF1D02800FFF7A3FF0028F3D019
:1009300001F08CF8F0E701F089F8EDE7FF2245239C
:10094000EA54FFF777FEFFF769FE4423EC5C64B2DC
:1009500001E0013C64B2002C0ADD2B6943B12800A0
:10096000103000F0BBFF0028F3D001F06FF8F0E783
:10097000FF224423EA54FFF75DFE70BD70B504000A
:100980000D0050B1C26BB2B301235B42B3FBF2F373
:10099000026C934203D200202EE072B6FEE7FFF70E
:1009A0003DFE2268E36B206C010059435118A160A1
:1009B0000021A1636260013B4343D318E360FF233E
:1009C0004422A3540132A35465B9236933B12000F2
:1009D000103000F083FF08B1FFF714FEFFF72AFE86
:1009E000012009E020001030FFF7A6FE200024308F
:1009F000FFF7A2FEF2E7002008B972B6FEE770BD6D
:100A000070B51D00049C59B92460E0632164012184
:100A10002000FFF7B3FF5023E5540023A36470BD0B
:100A20002260F2E7F0B583B005000F001600D0B1E8
:100A300001235B42B3FBF0F38B4214D308006843FD
:100A4000030055330FD85430FFF7ECFC040038B1E5
:100A5000020054320090330039002800FFF7D0FF25
:100A6000200003B0F0BD72B6FEE710B50C0008B16F
:100A7000884201D272B6FEE702220021FFF7D2FFC0
:100A800000B1846310BDF0B585B004000F00019281
:100A90001E0020B129B101254DB972B6FEE772B62C
:100AA000FEE7036C0BB90125F6E70025F4E7022EFB
:100AB00002D035B972B6FEE7E36B012BF9D0002501
:100AC000F7E700F0C9FF10B9019B03B100250DB98C
:100AD00072B6FEE700253FE0A56B3200390020002A
:100AE000FFF789FEA36C6BB1022E00D12DB9200057
:100AF000FFF7BFFE08B1FFF785FDFFF79BFD012063
:100B000005B0F0BD636A43B12000243000F0E6FE7A
:100B10000028F2D0FFF776FDEFE70028EDD0FFF7D1
:100B200071FDEAE7FFF786FD0020E9E7FFF782FDA8
:100B300001A902A800F056FFF0BB2000FFF73FFE1E
:100B4000A0B320001030019900F094FE2000FFF7C0
:100B5000D4FE00F07BFD30B3FFF760FDA36BE26BCA
:100B60009342B9D3022EB7D0019B002BDAD01DB926
:100B700002A800F02BFF0135FFF75CFD00F098FCA8
:100B8000FFF74CFD4423E35C5BB2013302D100224A
:100B90004423E2544523E35C5BB20133C6D1002217
:100BA0004523E254C2E7FFF72DFDD5E72000FFF70C
:100BB000A4FE00F04BFDCFE72000FFF79EFE00F003
:100BC00045FD00209CE7F0B5D64600B582B0040094
:100BD000009116001F0028B1009B2BB101234BB9D7
:100BE00072B6FEE772B6FEE7036C0BB90133F6E7A7
:100BF0000023F4E7022F02D033B972B6FEE7E26BAE
:100C0000012AF9D00023F7E7FFF722FD0190A36B3B
:100C1000E26B934201D3022F37D14523E55C6DB2DD
:100C2000A36B9A463A0000992000FFF7E4FD6B1C85
:100C300021D1A36C9BB1022F01D153463BBB2000B5
:100C4000FFF717FE28B336B3012333600124019860
:100C5000FFF702FD200002B004BC9246F0BD636ABB
:100C6000DBB12000243000F039FEC0B1CEB1012349
:100C700033600124EBE77F2D01D172B6FEE7013529
:100C80006DB24523E5540124E1E70024DFE70124A8
:100C9000DDE70124DBE70124D9E70124D7E70124BC
:100CA000D5E70124D3E770B504000E0018B1036C3A
:100CB0001BB172B6FEE772B6FEE703681BB10123F3
:100CC0003BB972B6FEE783680BB90133F8E700233E
:100CD000F6E7FFF7BDFC0500A26BE36B9A422BD24F
:100CE0004523E35C5BB20132A2635A1C1AD1A36CA8
:100CF00063B12000FFF7BDFD00B30EB301233360E5
:100D000001242800FFF7A8FC200070BD636ACBB166
:100D10002000243000F0E2FDB0B1BEB10123336009
:100D20000124EEE77F2B01D172B6FEE701335BB2FF
:100D30004522A3540124E4E70024E2E70124E0E78C
:100D40000124DEE70124DCE70124DAE70124D8E707
:100D5000F0B585B004000E00019220B129B1012543
:100D60004DB972B6FEE772B6FEE7036C0BB901250A
:100D7000F6E70025F4E700F06FFE10B9019B03B120
:100D800000250DB972B6FEE7002729E031002000EA
:100D9000FFF7A2FD013DA563236933B120001030A8
:100DA00000F09CFD08B1FFF72DFCFFF743FC01208C
:100DB00005B0F0BDFFF73EFC0020F9E702A800F007
:100DC00005FE013716E000224423E2541DE0002214
:100DD0004523E2541EE02000FFF78FFD00F036FCB3
:100DE000FFF71CFCA56B002DD0D1019B002BE1D09F
:100DF000002FE3D0FFF71EFC00F05AFBFFF70EFCBC
:100E00004423E35C5BB20133DDD04523E35C5BB29A
:100E10000133DCD0FFF70EFC01A902A800F0E2FDCF
:100E200098B92000FFF7DAFC0028D4D02000243045
:100E3000019900F01FFD2000FFF75FFD00F006FCA8
:100E40000028CDD1FFF7DEFBCAE72000FFF755FDF4
:100E500000F0FCFB2000FFF7C1FC0028C0D0002000
:100E6000A6E770B584B00400019118B1036C1BB102
:100E700072B6FEE772B6FEE700F0EEFD28B9019B00
:100E80002BB901332BB972B6FEE70123FAE7002331
:100E9000F8E70025002640E0013BA363236813B96F
:100EA00000F0DAFEA060236933B12000103000F0BA
:100EB00015FD08B1FFF7A6FBFFF7BCFB01252800D5
:100EC00004B070BD0DB172B6FEE7FFF7B3FBF6E7F5
:100ED00002A800F07BFD013629E000224423E25401
:100EE00030E000224523E25431E0FFF797FBA06891
:100EF00000F0C2FD0500FFF79DFB38E02000FFF782
:100F0000FCFC00F0A3FB08E02000FFF7F6FC00F07B
:100F10009DFB2000FFF762FCC0BBFFF77FFBA36BCC
:100F2000002BB9D1019B002BCCD0002ED0D0FFF7E5
:100F300081FB00F0BDFAFFF771FB4423E35C5BB279
:100F40000133CAD04523E35C5BB20133C9D0FFF75C
:100F500071FB01A902A800F045FD0028D4D12000B2
:100F6000FFF73CFC0028C9D02368002BBDD020002F
:100F70002430019900F07EFC2000FFF7BEFC00F059
:100F800065FB0028C9D1FFF73DFBC6E7002D96D0D1
:100F9000FFF744FB2000FFF709FC0100A06800F008
:100FA0000DFEFFF747FB002589E7F0B583B004008D
:100FB0000091160028B1009B2BB101234BB972B6EA
:100FC000FEE772B6FEE7036C0BB90133F6E70023C8
:100FD000F4E7FFF73DFB0190A76B2FB34423E55CDB
:100FE0006DB200992000FFF777FC7B1EA3636B1C9A
:100FF00010D12369D3B12000103000F06FFCB8B1DC
:10100000C6B10123336001240198FFF725FB2000BE
:1010100003B0F0BD7F2D01D172B6FEE701356DB290
:101020004423E5540124EFE70024EDE70124EBE736
:101030000124E9E70124E7E730B518B121B1002325
:1010400000240AE072B6FEE700230BB11960586075
:1010500030BD0B4AAB18F8E70134072CF5D8E50092
:10106000074A521952689042F3D0002BF4D1E200A3
:10107000034D5259002AEFD1E2005319ECE7C04664
:10108000886E022070B504000D001600FFF7C6FA46
:101090004423E35C5BB201330CD04523E35C5BB2D9
:1010A00001330BD0FFF7C6FAA36B5BB12000FFF74B
:1010B00024FC70BD00224423E254EEE700224523C5
:1010C000E254EFE7200024303200290000F0E4FB76
:1010D000ECE70000074B1B681B6833B1054B1B682E
:1010E000DB681A68044B1A60704701225242024BB7
:1010F0001A60F9E7201202200813022010B504003C
:10110000006BFFF711FA2000FFF70EFA10BD000088
:10111000F0B5D64600B582B000900D0017000193DF
:10112000089C0A9E9200A521306B05F0AFF9264B72
:10113000FB189B00326B94466344072293431F00C5
:10114000A5B1002309E0E91800200856F21834324E
:10115000107000228A5612B10133072BF3D90022F6
:101160003B23F254072C05D972B6FEE70022342344
:10117000F254F7E7F462746440F2000A5346B36431
:10118000301DFFF7E4FA30001830FFF7E0FA36615F
:1011900008231C1BB461766230004C30042200210D
:1011A00005F074F93300503352461A70019A0099D1
:1011B0003800FFF717FA3060099B03B11E6002B0D8
:1011C00004BC9246F0BDC046FFFFFF3F70B500244F
:1011D00007E0A3001B199A000E488018FFF7ACFA2D
:1011E0000134072CF5D90C4D2800FFF7A5FA0B4C5C
:1011F0002000FFF7A1FA0A48FFF79EFA0948FFF717
:101200009BFA0948FFF798FA084B1D60084B1C60D1
:1012100070BDC04628120220DC120220F01202200B
:1012200014130220401302202C130220201202204B
:101230002412022070B50400FFF7F0F9274A136862
:1012400001331360264B1B68002B3BD0254B1B68DA
:101250003BB9234B1B68DB6AE26A934201D8204BFF
:101260001C60214A136801331360E363E36A1F4A79
:101270001268934201D91D4A13601D4A9900C9188A
:101280008B00D3185B68A3609968E1609868211DA2
:1012900041609960E16A8B005D18A80010186061D8
:1012A0005D18A800050080580130A850FFF7C2F96A
:1012B0000C4B1B682BB10A4B1B68DA6AE36A9A4233
:1012C00008D370BD064B1C601368012BC9D1FFF712
:1012D0007DFFC6E7FFF796F9F3E7C046C812022084
:1012E0001C12022028130220D4120220D81202203D
:1012F0002812022010B514E0FFF790F90B4BDB68C1
:10130000DC68201DFFF73EFA094A1368013B1360B1
:10131000084A1368013B1360FFF78CF92000FFF7C0
:10132000EDFE044B1B68002BE6D110BD40130220DC
:10133000C8120220CC12022010B5FFF7DBFF034BCE
:101340001B68012BF9D9FFF75DF9F6E72812022097
:1013500070B504000D001E4B1E681E4B186804304B
:10136000FFF710FA631C13D034191A4B1B685C602A
:10137000A64224D8184B1868164B19680431FFF799
:10138000E9F9164B1B689C4220D2144B1C601DE0EF
:10139000002DE9D0124A51680E4B18688160186818
:1013A0008C68C4608C681868043060601868043009
:1013B00088601B685A6113680133136006E0094BAB
:1013C0001868044B19680431FFF7C4F970BDC046B2
:1013D000541302201C1202202012022008130220A3
:1013E0002C13022024120220F0B587B0049005913E
:1013F00014001F009000FFF715F80600E8B1542014
:10140000FFF710F80500A0B10663C5B100230393F0
:1014100002950D9B01930C9B00933B0022000599C4
:101420000498FFF775FE2800FFF704FF012007B0BE
:10143000F0BD3000FFF778F8E7E70025E5E7012089
:101440004042F4E700B583B0124B019300230093B0
:10145000802211491148FFF7C7FF012807D0012852
:1014600008D0431C14D00E4B1B6803B000BD00F025
:1014700095FDF4E772B6012252420A4B1A6002321D
:10148000094B1A600022094B1A60FFF737F9EAE7A7
:1014900072B6FEE704130220F87000003913000052
:1014A00004100020081302202813022054130220E5
:1014B000024A1368013313607047C046D0120220FD
:1014C000014B18687047C04654130220F8B5544BBE
:1014D0001B68002B00D098E0524B1D6801351D6041
:1014E0008DB9514B1B681B680BB172B6FEE74E4AB3
:1014F00011684E4B1868106019604D4A136801332B
:101500001360FFF7E7FD4B4B1B689D4200D36CE077
:101510000024494B1B68DA6A93009B189A00474BDA
:10152000D358012B00D90124454B1B680BB902F09D
:101530008DF9444B1B68002B00D06EE02000F8BDF5
:101540000124394B1B681B68002B50D0364B1B689D
:10155000DB68DB685A6895424ED35A699968D86847
:101560008860D968986848601E1D5168B14246D0AD
:10157000002159611168013911609A6A7AB1D969FB
:10158000186A8860196AD86948601900183150686B
:10159000884237D000219962116801391160DA6AF6
:1015A000294909688A4201D927490A6023499000DC
:1015B000801882008A1852689A609068D860906893
:1015C00046609660D86A82001718BE008E195E6168
:1015D0001718BE003700765801367E50DA6A164B6F
:1015E0001B68DB6A9A42ABD2ABE70024A9E7012271
:1015F0005242104B1A608CE70E4B1A6089E7D9688B
:101600005160B5E7196A5160C4E70D4A13680133A8
:10161000136002F01BF9002490E701248EE7C04616
:10162000D012022054130220201202202412022081
:101630000C130220081302201C1202202812022080
:101640001013022058130220D812022070B5474B05
:101650001B680BB972B6FEE7FEF7E0FF434B1A6852
:10166000013A1A601B68002B00D07AE0404B1B68DF
:1016700053B90024FEF7DEFF200070BD196A5160E7
:1016800016E0D968516023E000233A4A1268002A24
:101690004CD0384BDB68DB689A6AD969186A886075
:1016A000196AD86948601900183150688842E5D035
:1016B000002199621168013911605A699968D868E6
:1016C0008860D968986848601C1D5168A142D8D0CC
:1016D00000215961116801391160DA6A26490968E7
:1016E0008A4201D924490A60244990008018820066
:1016F0008A1852689A609068D860906844609460D4
:10170000D86A82001518AC000C195C611518AC0081
:101710002500645801346C50194A1268D26AD96A9B
:101720009142B2D30121174A1160AEE70BB1FFF726
:10173000D1FC154B1C6844B9124B1B689BB1FEF7DA
:1017400061FF012496E7013C3CB1FFF7BFFE002892
:10175000F9D001220B4B1A60F5E700220A4B1A6000
:10176000EAE7002486E7002484E7C046D01202207E
:10177000C812022014130220D812022028120220BC
:101780001C120220581302201013022010B504006E
:1017900068B1094B1B680BB172B6FEE7FFF788FE14
:1017A00000212000FFF7D4FDFFF750FF00E00020EC
:1017B00008B9FEF727FF10BDD012022010B5274B45
:1017C0001B68EBB90022264B1A60264B1B681B6B6B
:1017D000254A1968914202D15968914214D0214B8F
:1017E00018681968343102F02FF8204B1B689A00F2
:1017F000D21891001E4A8A5882B96BB1013BF6E7B4
:101800000122174B1A6010BD99689142E7D1DA683E
:10181000154B9A42E3D1E8E772B6FEE714489A0006
:1018200041184C6864684C60D21891000831401827
:1018300084420BD09A00D21891000D4A5218526877
:10184000D168084A1160094A1360DCE760689A00B1
:10185000D2189100064A52185060EBE7D0120220CD
:10186000581302201C120220A5A5A5A5D8120220FB
:101870002812022010B50C0008B972B6FEE7054B1D
:1018800019681831FEF766FF01212000FFF760FD9F
:1018900010BDC0461C12022070B50D00D0B14468C6
:1018A0000D4B1968CC611968A6680E62A6681968A4
:1018B000183171601E681836A6601B68986203684C
:1018C000013303600AB101256D4211002800FFF7C2
:1018D0003FFD70BD72B6FEE71C12022030B5C36832
:1018E000DB68002B4ED09A6AD969186A8860196A39
:1018F000D8694860180018305168814244D00021EE
:1019000099621168013911602A4A1268002A41D18E
:101910005A699968D8688860D968986848601C1DB9
:101920005168A14233D00021596111680139116019
:10193000DA6A214909688A4201D91F490A601F49A8
:101940009000801882008A1852689A609068D86067
:10195000906844609460D86A82001518AC000C1935
:101960005C611518AC002500645801346C50DA6ACB
:10197000134B1B68DB6A9A4219D90122114B1A607A
:10198000012030BD72B6FEE7196A5160B7E7D96829
:101990005160C8E70C4A5168D9618C681C628C6838
:1019A000606088609A62116801311160DFE7002091
:1019B000E7E7C046D0120220D812022028120220E7
:1019C0001C1202205813022014130220034B1B6820
:1019D0000360034B1B6843607047C0460C13022032
:1019E00054130220F8B505000C00B0B1B9B1FEF7F0
:1019F00015FE144B18686968421A23685E1C1ED0D5
:101A0000114E36682F68B74201D0884209D29A42F7
:101A10000ED300232360012406E072B6FEE772B6FF
:101A2000FEE7002323600124FEF704FE2000F8BD3A
:101A30009B1A23602800FFF7C9FF0024F4E7002465
:101A4000F2E7C046541302200C1302200122014B7E
:101A50001A60704758130220054B1B6823B1054BD1
:101A60001B681BB9022070470120FCE70020FAE741
:101A700028130220D012022070B5040000284CD098
:101A8000C36A274A1268D26A93423CD28269002A0A
:101A900005DB234A1268D16A0822521A82619A0031
:101AA000D3189A001F4B9B1862699A4205D01C4BB1
:101AB0001B68DB6AE362012070BD251D2800FEF76C
:101AC00061FE174B1B68DB6AE362174A1268934298
:101AD00001D9154A1360134A9900CB18990051187F
:101AE0004B68A3609968E16099684D609D60E16A08
:101AF0008B005D18A800050010186061A85801301F
:101B0000A8500120D8E7426C054B1B68DB6A9A425B
:101B100001D20120D0E70020CEE70020CCE7C0466C
:101B20001C12022028120220D812022070B50400D4
:101B3000002837D01E4B1B68984201D072B6FEE7D2
:101B4000836C0BB972B6FEE7013B8364C26A416CD9
:101B50008A4229D053BB051D2800FEF713FE636C93
:101B6000E3620822D21AA261124A1268934201D992
:101B7000104A1360104A9900CB18990051184B680D
:101B8000A3609968E16099684D609D60E16A8B008F
:101B90005D18A800050010186061A8580130A85011
:101BA000012070BD0020FCE70020FAE70020F8E7E4
:101BB0001C120220D81202202812022070B5040044
:101BC00060B1806C08B972B6FEE7636C8B4200D2DC
:101BD0000B00E26A934201D0012800D070BD1B497E
:101BE00009688C4201D172B6FEE7E362A16900295F
:101BF00002DB0821CB1AA36193009B189A00144BB7
:101C00009B1862699A42E9D1251D2800FEF7BAFDAA
:101C1000E36A104A1268934201D90E4A13600C4AD3
:101C20009900C9188B00D3185B68A3609968E160BC
:101C300099684D609D60E16A8B005D18A800050001
:101C400010186061A8580130A850C7E71C12022084
:101C500028120220D8120220054B1B6823B1044B26
:101C60001A68936C01339364014B18687047C0463F
:101C70001C120220064B1A6813682BB9013303604B
:101C800023B9D368186870470023F8E70020FAE703
:101C90005C13022010B54160006191420CD8D21A49
:101CA00083699A4201D3012010E0011D094B186895
:101CB000FEF750FD002009E09A4201D2994206D277
:101CC000011D054B1868FEF745FD002010BD0120E1
:101CD000FCE7C046601302205C13022070B50400CC
:101CE0000D00160005E0A3699C4665442000236AA8
:101CF0009847A369E9182B0032002000FFF7CAFFBC
:101D00000028F0D170BD000070B505000E000C4B2E
:101D10001B68DB68DC68201DFEF734FD2823E35CCC
:101D20005A0707D4012293432732A354236A200081
:101D3000984770BD320029002000FFF7CFFFF5E77C
:101D40005C13022010B505E0DB68186801214942E8
:101D5000FFF7DAFF054B1B681A68002AF4D1044A22
:101D6000024910680860136010BDC0465C13022071
:101D70006013022070B50500FFF7A2FB0400074BBB
:101D80001B68984205D300232B60044B1C60200085
:101D900070BDFFF7D7FF01232B60F6E78C130220FD
:101DA00070B582B004000D00FFF782FB01A8FFF7B9
:101DB000E1FF0600019BFBB90DB9A04210D225B18D
:101DC0000F4B1B681B6893B90125A11B0D4B1868AD
:101DD0002A00FFF757F9FFF739FC50B102B070BD88
:101DE000FFF734FC31002000FFF78EFFF6E70025F7
:101DF000EBE7FEF707FCF1E7FFF728FCEEE7C0464C
:101E0000601302209013022030B585B0344B18685F
:101E1000002201A9FEF79CFF00285ED0019B002B49
:101E2000F4DB039C636913B1201DFEF7ABFC68462D
:101E3000FFF7A0FF0500019B092BE7D89B00294A6B
:101E4000D3589F462822A35C01210B43A354029B35
:101E5000A269944663441900029B02002000FFF728
:101E600019FF0028D2D02823E35C5A0707D40122A7
:101E700093432732A354236A20009847C6E7029B66
:101E8000A2699446634419002A002000FFF726FF48
:101E9000F1E72822A35C01218B43A354B6E7282253
:101EA000A35C01210B43A3540299A16131B14118F4
:101EB000030002002000FFF7EDFEA7E772B6FEE781
:101EC0002823E35C9A0704D5012293432732A354C5
:101ED0009CE72000FEF728FB98E705B030BDC04620
:101EE000901302200071000000B583B001A8FFF735
:101EF000C1FE0199FFF754FFFFF786FFF6E70000E8
:101F000070B5FEF78BFB0F4B1B6813B1FEF792FB0E
:101F100070BD0D4D2800FEF70FFC0C4C2000FEF7A5
:101F20000BFC0B4B1D600B4B1C6000220C21052091
:101F3000FEF778FD034B18600028E7D00649FFF74D
:101F40007BF8E3E790130220641302207813022049
:101F50005C1302206013022028710000F0B5C64611
:101F600000B580460D0016001F00079C09B972B627
:101F7000FEE7FFF7C5FF43462360A561E761069BC7
:101F80002362201DFEF7E3FB26B12822A35C042177
:101F90000B43A35404BC9046F0BD000000B583B0D1
:101FA000FFF7AEFF094B1B6863B1094B0193022396
:101FB00000930023502207490748FFF715FA18B984
:101FC00072B6FEE70020FAE703B000BD90130220CE
:101FD0009413022030710000E91E0000F0B585B0B6
:101FE00003900D0016001F002C20FEF71BFA0400C2
:101FF00058B100222823C25401900A9B00933B0051
:10200000320029000398FFF7A9FF200005B0F0BDBA
:1020100030B585B004001D0098B1134B186808B3A3
:10202000019102920394052915DCFFF715FD0228A2
:1020300009D00D4B18680023002201A9FEF723FDEB
:102040000EE072B6FEE7084B18680023089A01A953
:10205000FEF719FD04E000232A0001A9FEF7B3FDF5
:1020600005B030BD0020FBE790130220030002689A
:102070000E200240196881431960196A090407D4C7
:102080000E49097859B90D380C490870002000E054
:102090000220022805D019680A431A6070470220FE
:1020A000F7E7802159580904F5D4044949780029F3
:1020B000F1D1013801494870EDE7C046981302207C
:1020C00070B5050000200024054B9C4206D828006E
:1020D000FFF7CCFF022801D10134F5E770BDC046FF
:1020E000FFFFFF0F10B5012900D910BD03680E24B2
:1020F00023400268A24302600024034A5454026849
:1021000013430360F1E7C046981302200F2907D953
:1021100040F22413C35810390120884018407047FA
:1021200040F22013C358012088401840F7E7000010
:102130009823C3581B0447D5436810229343436038
:1021400023328423C2501033C3585B042FD400239E
:102150000B609433C258920840F2FF7313408B60B7
:102160009423C25842F2000313405A4253414B6039
:102170009823C258893B13400B739C23C2584A735F
:10218000C3581B0A8B73A023C258CA73C3581B0AB7
:102190000B74A423C2584A74C3581B0A8B74A82317
:1021A000C258CA74C3581B0A0B750120704701231B
:1021B0000B609333C3581B04044A13408B60902276
:1021C000825813438B60CBE70020EFE70000FF1F2E
:1021D000F0B583B005000E0001921F003D4B1C6856
:1021E0006400FFF793FF10B9002003B0F0BD280092
:1021F000FFF766FFC3B2022B6AD06B6810229343CD
:102200006B60FF2101400800019BCBB140F27F0CC5
:102210004A0052185301EB1862465A6201361E6298
:10222000420012185301EB181B6A1B040BD5013C2A
:10223000002CF5D12800FFF755FF01204042D4E7DC
:1022400040F27B0CE4E74A0052185301EB185B6B39
:102250005B042FD400233B604A0052185301EB1853
:102260005A6B920840F2FF731340BB604A0050184B
:102270004301EB189C6B0F2020403873D86B7873A8
:10228000D86B000AB873186CF873186C000A3874AD
:10229000586C7874586C000AB8749B6CFB745318B3
:1022A0005A01AA18936C1B0A3B752800FFF71AFF06
:1022B00001209AE701233B604B005B185A01AA18E2
:1022C000536B1B0404480340126B1343BB60CDE700
:1022D00000208AE7101000200000FF1F70B503687F
:1022E000456904242C401B0600D52CB9C9B2130043
:1022F0000122FFF76DFF70BD1100FFF719FFFAE72C
:1023000070B504000D00FFF7DBFE02280CD0420080
:1023100012185301E3180C225A6201351D620100A4
:102320002000FFF7DFFE70BD0020F0E710B501F0E0
:102330008FFA014B186810BD1010002010B501F085
:1023400087FA014B186810BD1010002010B501F07D
:102350007FFA014B186810BD1010002030B58BB00B
:1023600002A8374903000A0031CA31C331CA31C358
:1023700011CA11C30B6A0193324B9A6802210A40B9
:102380001B6CD9031FD500212F4B19602D4B1969E8
:1023900007230B40012B37D0022B4ED09B0002AA03
:1023A0009B58284A126A0F2010400130B3FBF0F00E
:1023B000264B1860264BC318264AB3FBF2F3264A75
:1023C00013600BB030BD190305D5244C990304D517
:1023D0001D4B1C60DAE7224CF8E7980B0321014003
:1023E00001A8455C40F2FF11194002315B0A1F2031
:1023F00003400133A408490061436B43B1FBF3F38D
:102400009B0011490B60C1E722B90E498B6802207D
:1024100003438B6040F200131249CB585B0609D589
:1024200047F60053002ABCD106498A68022082433D
:102430008A60B6E748F20003F4E7034B1B68B0E795
:1024400038710000000200400C1000201010002025
:1024500020A1070040420F0008100020001BB70019
:1024600000127A0000100440F0B58BB0019206AD66
:102470002B4B1C002434C4CCC4C524682C6002AC93
:10248000343364CB64C41B682360264B9B680224EE
:102490001C40254B98422CD0830AFF2423408BB14B
:1024A000850CFC3C2C40A40002AAA5581F4A944667
:1024B00065442C6847091F263E40B3409C43019A5F
:1024C00022432A60430E0722134083B1040F043ACB
:1024D0002240920006AC1259154CA446624414687E
:1024E000000D1F25284083409C43214311600BB001
:1024F000F0BD24B90B4A93680220034393600D4852
:1025000040F2001283588025AB4319438150002CC0
:10251000EDD1044A936802218B439360E7E7C046FC
:10252000387100000002004001000040200200401D
:102530001002004000100440024A13681843106063
:102540007047C046000200401F2202400123934012
:10255000800F8000034A944660440268134303607E
:102560007047C046040200400200074B186840084C
:10257000064B1B6D13409A4203D001380028F7D157
:1025800000E001207047C04610100020000200400B
:10259000F8B505000E00564F3B6D10241C403B68FB
:1025A000042213433B601020FFF7DEFF3B69072244
:1025B00013433B614F4B1B681A0040F2F811802017
:1025C000C0054158090602D5013A002AF5D18020FC
:1025D000C00540F2F81142580327BA43425040F276
:1025E000FC128021C9058A58D20702D5013B002B75
:1025F000F5D1414AD36C0F218B4304200343D364AC
:102600003B4A136A8B431E431662136908398B4396
:102610001D43156101F01CF9364B1868030040F2A8
:10262000F8128021C9058A58120602D5013B002BF9
:10263000F5D1324A324BC31893423CD88021C905A8
:1026400040F2F8128B580325AB43023D2B438B50CD
:102650002C4B984207D88021C90540F2F8128B58BC
:1026600003252B438B50030040F2FC128021C90547
:102670008A58D20702D5013B002BF5D1224A234BC1
:10268000C318934227D81C4AD36C0F218B430C39B3
:102690000B43D3641C4B984206D8174AD36C0F21C6
:1026A0008B430E390B43D36424B9114A13680421B8
:1026B0008B431360F8BD164A164BC3189342C7D814
:1026C0008021C90540F2F8128B580325AB43013D28
:1026D0002B438B50BCE70C4A0F4BC3189342D9D8FD
:1026E000054AD36C0F218B430D390B43D364D1E7DB
:1026F000000200401010002000C00040FF502502E2
:10270000FF9323FD00093D003F787D01800F05FD0B
:10271000FF629F02FFF6C2FFC08782FEF0B5D64679
:102720004F464646C0B582B082460C00444A116C02
:1027300080235B020B431364F0B9136801210B4340
:1027400013600120FFF710FF3E4B98463E4BE31805
:102750003E4A93421BD94CF20E2355461D43384B3B
:102760001D643B4C0420FFF7FFFE200002B01CBCA0
:1027700090469946A246F0BD314A136804210B43A6
:1027800013601020FFF7F0FE324B9846DEE7324A26
:10279000934209D8A40040F2030900230193009357
:1027A00001277F42032528E02C4A2D4BE318934252
:1027B00003D8640040F20109EFE740F20009ECE7BA
:1027C000E31A0FE0013240F201239A4214D8330099
:1027D00053435B002349591823488142F2D89C4255
:1027E000EED21B1B9F42EDD91BB1019500921F0039
:1027F000E8E7019500921F000135202D08D8B8FBAD
:10280000F5F61A4BF2181A4B9A42F5D80222DAE77B
:102810004B469B0352461A43130001994D1E6D020D
:102820002B4300980200023A1343054A13644B46B7
:102830005C1C4C43B8FBF4F441004C4392E7C046A7
:102840000002004000127A0000CA91FE008C7D0A4E
:10285000006CDC02001BB700FF356E01FF6BDC0271
:10286000009423FD002847FA00EA3206807BE1FF4E
:10287000808D5B0070B506001D4B1B6D10251D4043
:102880001C4B984204D81C4B984202D81B4E00E0C7
:10289000184E174C23680422134323601020FFF7BF
:1028A00063FE2369072213432361236A083293439B
:1028B0002362236DDB0710D531000020FFF72EFFC8
:1028C000040000210220FFF763FE25B9084A1368BF
:1028D00004218B431360200070BD31008020000371
:1028E000FFF71CFF0400024B1B6D10251D40E8E79D
:1028F0000002004000D8B805FF356E0100366E01B9
:1029000010B582B0124B1B6A0193124B1B6CDA0399
:102910001BD41A0317D510489A0317D4990B032216
:102920000A4001A98C5C40F2FF121A4002325B0A95
:102930001F210B4001338008520050436343B0FB1A
:10294000F3F0800002E00548E6E7002002B010BD89
:102950003871000000020040001BB70000127A002E
:1029600030B585B06A462E4B243332CB32C21B6859
:1029700013602C4B9A6802231A402B4B984222D0AA
:102980002A4B984234D02A4B984236D0294B984251
:1029900039D0294B98423CD0430E072213407BB1DB
:1029A000010F043A0A4092006946525823498C4666
:1029B00062441168000D1F22104083400B40C34049
:1029C000180005B030BD22B916498B6802200343B8
:1029D0008B6040F200131A49C858C009FF3B0340FE
:1029E000002AEDD10F498A68022082438A60E7E716
:1029F0000C4B986901230340E2E70A4B98694008B1
:102A000001230340DCE7074B9869000A01230340D8
:102A1000D6E7044B9869400A01230340D0E7C0463B
:102A200038710000000200400100004010000080EA
:102A3000110000801200008013000080100200408E
:102A40000010044030B585B06A460E4B343332CBAB
:102A500032C21B681360820AFF2313407BB1810CD2
:102A600003220A4092006946525807498C46624444
:102A7000116840091F22104083400B40C3401800DA
:102A800005B030BD387100002002004070B5002450
:102A900000E001340F2C0FD80123A3400D001D408E
:102AA000AB42F6D1036866000325B540AB43150081
:102AB000B5402B430360ECE770BD0000F0B5CE4697
:102AC000474680B5ABB0402606402EB1430701D53E
:102AD000150002E00D0000E00025A969794804F026
:102AE0003DF815B1AF693C88A4B2774804F0AAF864
:102AF0002100764804F032F88EBBFB002FD47448D6
:102B000004F0A0F840F23013724AD458002C00D1DF
:102B1000D6E009A8704903000A0061CA61C361CA0E
:102B200061C361CA61C361CA61C33031542215A84F
:102B300003F0A3FC03A90A00684B043323CB23C290
:102B400003CB03C21B7813700023532B00D9B7E0CB
:102B500001229A40224200D09DE00133F5E74BF676
:102B6000AB639C4226D0230B052B27D0620B032A94
:102B700047D0082B67D0092B00D088E0FF262640DD
:102B8000220A023B1340984632001900544803F0D1
:102B9000E5FFAB699C46664443469B00EA58230523
:102BA00073D5504B01960092220039004E4803F035
:102BB000D5FFA7E74D4804F045F8A3E7A30907268A
:102BC00033409946E3083340984626404A46310050
:102BD000474803F0C3FF43469B005A594B469B00AE
:102BE0005B59D218B600A959230508D53D4B01926F
:102BF0000091220039003C4803F0B0FF82E73D4BD2
:102C0000F5E7A3091C321A409146E3080726334032
:102C100098462640130042463100374803F09EFF95
:102C200043469B005A594A44B600A959230508D582
:102C30002C4B01920091220039002B4803F08EFFAB
:102C400060E72C4BF5E7A3091F221A409146E308E1
:102C50000726334098462640130042463100274855
:102C600003F07CFF43469B005A594A44B600A959D9
:102C7000230508D51B4B01920091220039001A4808
:102C800003F06CFF3EE71B4BF5E71A4B8AE71C4845
:102C900003F0D8FF36E703AAD45C1A4AA2181268D8
:102CA0009B0015A95958184803F058FF094B9C463A
:102CB000644423689B0009AA9958144803F04EFF06
:102CC000FEE7C04620720000347200004872000027
:102CD0006072000000F002407C710000FC71000096
:102CE0002873000018720000C8720000887200008B
:102CF000AC7200001C720000E87200000873000053
:102D00004473000004F002405C7300007473000020
:102D10000020704710B5130009E00D4B9B691B02A2
:102D2000FBD4002008560A4B1860230001315C1EBA
:102D30005BB10023CB560A2BEFD1054B9B691B02DD
:102D4000FBD40D20024B1860E7E7100010BDC04611
:102D500000000740044B9B695B04FBD4024B1B68DB
:102D60000B7001207047C04600000740F0B50028F6
:102D700059D0C3695BB92C4A536901218B43536114
:102D8000036A022B08D103691433036104E0264A65
:102D9000536901210B435361234CC368A36103684A
:102DA000224A944663440A21B3FBF1F63205B5008A
:102DB000AD196E009B1B1B041A434368B3FBF1F66D
:102DC00035032A43B500AD196E009B1B1B021A4345
:102DD0008368B3FBF1F635012A43B500AD196E00E7
:102DE0009B1B1A430569B5FBF1F73B05BE00F619BD
:102DF0007700ED1B2D042B434569B5FBF1F73E032E
:102E00003343BE00F6197700ED1B2D022B4380697A
:102E1000B0FBF1F10D012B438D0069184D00401BF3
:102E200003432261E360F0BD0010044030F8FFFF6F
:102E300030B51E4B196860B1022816D001282CD07D
:102E40001B4940F200128B58802003438B507F387F
:102E50000AE0174A40F20013D1588024A143D15010
:102E6000D158403CA143D15030BD114A40F200132B
:102E7000D458104D2C4009040F4D29402143D15006
:102E8000D15801242143D150D1587F34A143D1508E
:102E9000D158403C2143D150E6E7054940F20012A9
:102EA0008B58802423438B50DEE7C0464C01004002
:102EB00000100440FFFF00FE0000FF01F0B5CE4609
:102EC000474680B583B004000E0091461D00036E96
:102ED000012293430366202D56D0FFF727FA804640
:102EE000FFF72CFA0700FFF731FA0190002E00D00F
:102EF00013E10023A3602A0232434B461A43012503
:102F00002A4322600A9B984540D9B74B9C4275D012
:102F1000B64B9C4272D0B64B9C4200D18BE0B54B75
:102F20009C4200D187E0B44B9C4200D1A0E0B34B5F
:102F30009C4200D19CE0B248FFF712FD000300283C
:102F400000D0B6E0AF4F0A9B984500D8CBE00A9B73
:102F50009F4200D8CFE00A9B002B00D1CEE0BA0000
:102F6000D21956000A9BB6FBF3F605360A23B6FBC8
:102F7000F3F6731E40F2FF12934200D8C5E0636877
:102F8000134363607F0AB0E00025A6E700F03AFB38
:102F9000C300BAD4944B9C4217D0944B9C4214D09B
:102FA000934B9C4219D0934B9C4216D0924B9C421F
:102FB0001BD0924B9C4218D0934A936993490B4083
:102FC00042F200010B4393619FE78F4A93693021DE
:102FD0008B4310390B43936197E78B4A9369C02168
:102FE0008B4340390B4393618FE7874A9369884944
:102FF0000B4040F600010B43936186E78548FFF7DD
:10300000AFFC000108B97F4F9DE78248FFF7A8FC9D
:103010000001102807D07F48FFF7A2FC00012028FC
:1030200005D07D4F8FE7FFF76BFC07008BE7FFF7BD
:103030008DF9070087E77948FFF792FC800108B90E
:10304000704F80E77548FFF78BFC8001402807D060
:103050007248FFF785FC8001802805D06E4F72E72B
:10306000FFF74EFC07006EE7FFF768F907006AE715
:103070006B48FFF775FC800208B9624F63E7684848
:10308000FFF76EFC800240F20043984209D064488A
:10309000FFF766FC800240F60003984205D05E4FC1
:1030A00051E7FFF72DFC07004DE7FFF74FF9070049
:1030B00049E75348FFF754FC000341F200039842EC
:1030C00009D04F48FFF74CFC000342F2000398423E
:1030D00005D0514F37E7FFF713FC070033E7FFF741
:1030E0002DF907002FE700236360380003B00CBC04
:1030F00090469946F0BD00236360F6E7636840F2AE
:10310000FF12134363607F0AEFE76268520A5202BC
:1031100013436360B7FBF6F7E7E70023A3602D02D4
:1031200032002A43494611430A0001252A432260FE
:10313000636000F067FAC30035D42B4B9C4217D074
:103140002A4B9C4214D02A4B9C421AD0294B9C42B9
:1031500017D0294B9C421CD0284B9C4219D02A4A9C
:1031600093692A490B4042F200010B439361BCE78B
:10317000254A936930218B4310390B439361019F9A
:10318000B3E7214A9369C0218B4340390B439361D4
:10319000ABE71D4A93691E490B4040F600010B4303
:1031A0009361019FA1E7104B9C4216D00F4B9C42AC
:1031B00013D00F4B9C4249D00E4B9C4246D00E4B35
:1031C0009C425DD00D4B9C425AD00D48FFF7C8FB86
:1031D0000003002873D10B4F87E70E48FFF7C0FBB1
:1031E0000001F8B9074F80E70010064000100650B4
:1031F00000200640002006500030064000300650F7
:103200000600C0A600127A0000020040FFCFFFFFB8
:10321000FFF3FFFF0D004066001BB7000E00606665
:103220000F00A0663148FFF79BFB0001102807D074
:103230002E48FFF795FB0001202805D02C4F54E7BE
:10324000FFF75EFB070050E7019F4EE72948FFF7B5
:1032500087FB800108B9284F47E72648FFF780FB26
:103260008001402808D02348FFF77AFB800180289E
:1032700000D13AE71E4F38E7FFF742FB070034E77B
:103280001E48FFF76DFB800208B91B4F2DE71B4856
:10329000FFF766FB800240F20043984209D01748CE
:1032A000FFF75EFB800240F60003984205D0104F06
:1032B0001BE7FFF725FB070017E7019F15E71048FD
:1032C000FFF74EFB000341F2000398420AD00C487E
:1032D000FFF746FB000342F20003984200D104E7E7
:1032E000034F02E7FFF70CFB0700FEE60D00406608
:1032F000001BB7000E00606600127A000F00A06687
:103300000600C0A6036940F2001213430361704730
:10331000036940F200221343036170478368092266
:10332000934383607047000010B50369034C23404A
:103330000907194312060A43026110BDFFFFFF8807
:103340000202120A01239340000E054A944660448B
:1033500002681A43026002689A4302607047C046DE
:103360000800004043688B4343607047436819433B
:1033700041607047F0B589B004000E005D4D6B46AA
:103380002A0023CA23C323CA23C303CA03C35A4A36
:10339000944200D194E01DD9584A944200D180E073
:1033A00046D9574A944234D0564A944200D187E0D5
:1033B000554A94426FD1554D2800FFF7D1FA0700C6
:1033C0002800FFF73FFB0500042F43D1FEF7BEFFA7
:1033D00004903FE04E4A944263D014D84D4A944240
:1033E0002DD04D4A944256D14C4D2800FFF7B8FAE3
:1033F00007002800FFF726FB0500042F2AD1FEF75F
:10340000A5FF049026E0464A9442D4D0454A94420F
:1034100041D1454D2800FFF7A3FA07002800FFF728
:1034200011FB0500042F15D1FEF788FF049011E071
:103430003E4A944203D03E4A9442D5D02BE03D4DC3
:103440002800FFF78DFA07002800FFF7FBFA0500B8
:10345000042F22D0002323630333E360A368364A9A
:103460001340A360012F3AD0AEB1BF006B46FA58AB
:103470000135B2FBF5F27308D318B3FBF6F3023B48
:103480004FF6FF718B4230D9F300D218B2FBF6F63B
:103490003609023E666209B0F0BDFEF74FFF0490A8
:1034A000D8E7264D2800FFF75BFA07002800FFF752
:1034B000C9FA0500042FCDD1FEF740FF0490C9E7FB
:1034C0001F4D2800FFF74CFA07002800FFF7BAFA53
:1034D0000500042FBED1FEF739FF0490BAE7FFF7CD
:1034E0000FFABB006A469850BEE7C022920513430C
:1034F0006362D0E7007400000050074000200750CE
:10350000004007500050075000300750933CCC6FEC
:10351000002007400000074000100740913D406F29
:103520000030074000400740143D8C7F00000750EA
:1035300000100750103D006F0FFFF0FF123C8C6F22
:10354000953DCC7F30B50B4C24680B4D6960520023
:1035500002431B011A4380231A432A60064B1B684F
:103560005B0005D5013C002CF8D10220404200E070
:10357000002030BD101000200000044010B502F003
:10358000ADFD582303600120404210BD10B502F08C
:10359000A5FD582303600120404210BD10B502F084
:1035A0009DFD58230360002010BD10B502F096FD6C
:1035B000582303600120404210BD000000F064F970
:1035C0000549064A064B9B1A03DD043BC858D050F8
:1035D000FBDCFCF749FE000008AA00000000002008
:1035E000E01100207046EFF30881EFF30982064BEB
:1035F00098470047FEE7FEE7ABBE044B744698478A
:103600002047C0467046F047BD2A0000112D00003B
:10361000842801D0033070470020FCE7EFF30580D9
:10362000431E9841704710B5FDF70CFF002010BDF8
:10363000F0B585B00D004668076804690823C05ED0
:10364000FFF7E6FFA2B203AB019300902B00390015
:103650003000FDF7C9FE012802D1039805B0F0BD86
:103660000020FBE710B5400800B90130FEF78EF8E6
:10367000002010BD00B583B01300012908D000223E
:103680000168009164210348FEF7A8FC03B000BD67
:103690000122F5E7849B000030B585B005000023CA
:1036A00003934C0804B90134FFF7B8FFA0B100231D
:1036B000009303AB220009212800FEF7A9FC012892
:1036C00002D0FF2005B030BD039B93B1802252058C
:1036D000094B1A600020F5E7002300932200042123
:1036E0002800FEF795FC012801D0FF20EAE7002022
:1036F000E8E70020E6E7C04604ED00E010B584B03E
:10370000040000230393FFF789FFA0B10023009377
:1037100003AB002208212000FEF77AFC012802D02A
:10372000FF2004B010BD039B93B180225205094BCA
:103730001A600020F5E700230093002203212000F7
:10374000FEF766FC012801D0FF20EAE70020E8E749
:103750000020E6E704ED00E010B50800012904D0E0
:10376000FDF783F90400200010BD03220021FDF7BE
:1037700059F904000028F6D0002300220021FDF7AB
:1037800082F9F0E730B583B005000023019338B328
:103790004B1C04D031B14C082CB9012403E00124A6
:1037A000644200E00024FFF739FF80B101AA002144
:1037B0002800FDF7FAFB012801D0FF200EE0019B55
:1037C00083B180225205094B1A60002006E02100D7
:1037D0002800FDF746FB012806D0FF2003B030BDCE
:1037E0008020FBE70020F9E70020F7E704ED00E088
:1037F00010B582B0040000230193FFF70FFF80B1E2
:1038000001A92000FDF74FFA012802D0FF2002B0E5
:1038100010BD019B8BB180225205094B1A6000201C
:10382000F5E70023002200212000FDF72CF90128F4
:1038300001D0FF20EBE70020E9E70020E7E7C046E2
:1038400004ED00E072B6FEE772B6FEE770470000D6
:1038500010B5FFF755F8074B1860FEF77FFD064BD4
:103860001860064B9C466044054BB0FBF3F0054BDB
:10387000186010BD0C1000201010002020A10700BF
:1038800040420F000810002010B5FFF7BBFEC30038
:1038900016D48022D20540F200135921D150433969
:1038A000D1507231D150D358002BF2D041F20001E7
:1038B00040F2F413D150044A5168044B0B43536057
:1038C000034B044A9A6010BD000200400040F0FF24
:1038D00000ED00E00000000010B50122024B1A705C
:1038E000024800F005FE10BD84170220D8980000A1
:1038F00070B504000023C356DAB20F2A00D974E170
:103900009300BC4AD3589F460830BB4903F00CFAD9
:10391000002800D06CE1A378012B0DD0022B0FD032
:10392000032B11D0042B2ED1B44B1A78042A26D89D
:103930009300B34AD3589F46B24800F0D9FD57E1EF
:10394000B14800F0D5FD53E1AF4800F0D1FD4FE1A3
:10395000AE4800F0CDFDAE4800F0CAFD48E1AD48EC
:1039600000F0C6FDF7E7AC4800F0C2FDF3E7AB4856
:1039700000F0BEFDEFE7AA4800F0BAFDEBE7A9486A
:1039800000F0B6FDE7E7A04800F0B2FD30E10830F6
:10399000A54903F0C9F9002800D029E1A378012B3B
:1039A00009D0022B0BD0032B0DD0042B0FD096483F
:1039B00000F09EFD1CE19D4800F09AFD18E1924840
:1039C00000F096FD14E1904800F092FD10E1984C53
:1039D0009849200001F021FC974D2900200001F0BA
:1039E0002CFC200001F044FC200000F081FD9349F4
:1039F000200001F012FC29003231200001F01DFCF2
:103A0000200000F075FD8E49200001F006FC290021
:103A10006431200001F011FC200001F029FC20009D
:103A200000F066FD7A4800F063FDE1E0083085496A
:103A300003F07AF9002800D0DAE0A378012B09D04E
:103A4000022B0BD0032B27D0042B45D06E4800F05F
:103A50004FFDCDE07C4800F04BFDC9E0744C7B4944
:103A6000200001F0DAFB7A49200001F0E6FB20009B
:103A700001F0FEFB200000F03BFD7649200001F044
:103A8000CCFB7549200001F0D8FB200000F030FD90
:103A90005F4800F02DFDABE0E388022B03D05A48CD
:103AA00000F026FDA4E040F2B843E118684D28007C
:103AB00003F044F940F60413E1182E0032363000CA
:103AC00003F03CF9280000F013FD300000F010FD79
:103AD0004F4800F00DFD8BE04B4800F009FD87E0FA
:103AE00008305E4903F020F9002800D080E0A37878
:103AF000012B09D0022B0BD0032B0DD0042B0FD0A0
:103B0000414800F0F5FC73E0554800F0F1FC6FE02F
:103B10003D4800F0EDFC6BE03B4800F0E9FC67E05D
:103B2000434C5049200001F078FB4F4D2900200004
:103B300001F083FB200001F09BFB200000F0D8FC8B
:103B40004A49200001F069FB29003231200001F0D0
:103B500074FB200001F08CFB200000F0C9FC4449FC
:103B6000200001F05AFB29004631200001F065FBDE
:103B7000200000F0BDFC264800F0BAFC38E0083018
:103B80003C4903F0D1F898BBA378012B09D0022B54
:103B90000BD0032B0DD0042B0FD01B4800F0A8FC3A
:103BA00026E0354800F0A4FC22E0174800F0A0FC15
:103BB0001EE0154800F09CFC1AE000222F4B1A7002
:103BC0002F4800F095FC124C200000F091FC2000E2
:103BD00000F08EFC40F2D070FFF744FD02F060F878
:103BE00040F2E830FFF73EFD02E0264800F080FC9E
:103BF00070BDC04620740000E49600001410002040
:103C000060740000EC960000F89600000097000039
:103C10008C970000149700002C9700004497000038
:103C20005897000070970000909700009897000048
:103C30009C130220A497000018100020B8970000E1
:103C4000C4970000D4970000E0970000049800009B
:103C50000C110020149800002498000030980000F7
:103C60003898000044980000B010002058980000D8
:103C70006C9800007C980000849800008417022053
:103C80008C980000C098000010B582B00300094A6B
:103C900005211170FA3151700748846FFD39009188
:103CA0000021A047012802D0022002B010BD01204F
:103CB000FBE7C046581F0220CC6E022010B50A2038
:103CC000FFF7D0FC034C2000FFF7DEFF63789B0773
:103CD000F5D510BD2827022010B50A20FFF7C2FC39
:103CE000054C2000FFF7D0FF6378DB07F5D40120F7
:103CF000FFF7B8FC10BDC0462827022010B5074AC0
:103D000006231370F93353700548446FFE3B0021BE
:103D1000A047FFF7D3FF012010BDC046581F022067
:103D2000CC6E0220F0B585B007000391140096B266
:103D3000FFF7D2FF40F204139E420BD8134B03222D
:103D40001A703A0C5A703A0A9A70DF700436B6B29A
:103D5000042309E00E4800F0CBFB022014E0FF2111
:103D60000A4AD15401339BB2B342F8D30948856F54
:103D7000094F00963B00054A0021A847391D220043
:103D8000039802F07AFB012005B0F0BD581F022015
:103D900084990000CC6E022088170220F8B5070035
:103DA0000E00140040F204139A4204D9104800F0A7
:103DB0009FFB0220F8BDFFF7A1FF0E4D02232B70E1
:103DC0003B0C6B703B0AAB70EF70281D220031007A
:103DD00002F053FB0848466F231D2A000021B0471C
:103DE000012801D00220E5E7FFF776FF0120E1E797
:103DF00084990000581F0220CC6E022030B583B099
:103E00000C4A90231370002353709370D370FF33C8
:103E1000137153710848856F084CF93B00932300D8
:103E20000021A8472379EF2B02D0022003B030BD38
:103E30000120FBE7581F0220CC6E022088170220C9
:103E400010B50400FFF75AFF084A20231370230C13
:103E50005370230A9370D4700548446F04230021E3
:103E6000A047FFF739FF012010BDC046581F0220B0
:103E7000CC6E022070B505000E000024B4420FD2B3
:103E80002800FFF7DDFF012805D141F2000C654451
:103E90000134A4B2F2E7034800F02AFB022000E05C
:103EA000012070BDF898000070B5D0B04CAC284B24
:103EB000220023CB23C21B781370200002F046FFA0
:103EC000050002210320FFF7D5FF40F2E830FFF79D
:103ED000C9FB2A0021000320FFF760FF40F2E83011
:103EE000FFF7C0FB2A0033A90320FFF71BFF2A00BE
:103EF00033A9200002F0B2FA40B10224012C07D00D
:103F0000144800F0F5FA200050B070BD0124F5E728
:103F1000114800F0EDFA01AD10492B000A0043CA28
:103F200043C343CA43C343CA43C311881980927829
:103F30009A7033A91AA802F001FF1AA9280002F00A
:103F4000E7FE280000F0D4FA054800F0D1FADAE7DD
:103F500074990000589900001099000030990000F1
:103F6000849B000010B5074C2000FFF78DFE6178A0
:103F7000A01C01F09EF9FFF741FF012800D00220AC
:103F800010BDC0462827022010B5FFF73BFBC30039
:103F90003CD5234801228021FEF778FDFFF732FB54
:103FA000C30035D51E48012240F20011FEF76EFD18
:103FB000FFF728FBC3002DD5194801222021FEF769
:103FC00065FDFFF71FFBC30026D51548002202211F
:103FD000FEF75CFDFFF716FBC3001FD4114800225B
:103FE0000221FEF753FD00220F4B1A600F4B0121F7
:103FF00019601A608023DB051A6B0D490A401A63A9
:104000001A6B48F600010A431A6310BD0948C1E75C
:104010000848C8E70748D0E70648D7E70648DEE77C
:104020004040005000400040604800405C48004074
:10403000FF00FFFF404000400040005010B58023CB
:10404000DB055A6B16490A405A635A6B5A63FFF7ED
:10405000D9FAC30020D51348012241F20001FEF72E
:1040600015FD8023DB051A6C0F490A401A641A6C8F
:1040700047F270710A431A641A6C0F218A431A645A
:104080001A6C1A64FFF7BEFAC30007D4074801226E
:104090000121FEF7FBFC10BD0548DDE70548F6E70A
:1040A000FFFFF0FF004000500F00FFFF8040004086
:1040B00000400040804000508023DB059A6C04499A
:1040C0000A409A649A6C49F600110A439A64704750
:1040D000FF00FFFF10B5FFF7EFFFFFF755FFFFF7FA
:1040E000ADFF10BD704700000122014B1A737047ED
:1040F0003427022010B586B0144B02221A70002219
:104100005A70134A0492012203920293114B0193B5
:1041100008230093043B104A0121104801F08EFA55
:1041200001280FD00E4800F0E3F90E4C0E4A012191
:10413000200000F0CDFF236940F2E83120009847CD
:1041400006B010BD094800F0D3F9EEE7486F022031
:10415000E54000000024F400CC6E02200020064060
:10416000AC99000034270220E94000009899000033
:1041700010B52F4B1B78012B11D02BB1022B18D06F
:104180002C4800F0B5F90FE02B4B1B7B012B0BD11A
:104190000022294B1A730132284B1A7004E0FFF7F2
:1041A00083FE0022254B1A70244B1A78204B1A707C
:1041B00010BD2348036A234A052198476422224BF5
:1041C0001A70214B1B78002BEED01D48C36A98470C
:1041D00050B91D4B1B78012B21D0013B1A4A13709B
:1041E0000A20FFF73FFAECE70022174B1A70144B36
:1041F0005B7A012B09D0154800F07AF91048436921
:10420000984700220D4B1A70CEE7114800F070F964
:104210000B48436998470022084B1A70C4E70024F2
:10422000094B1C700B4800F063F9044B1C70BBE792
:1042300054270220EC990000342702205228022043
:10424000606F02205827022053280220C8990000DE
:10425000C0990000D499000010B5FFF783FE012833
:1042600003D0044800F044F910BD034800F040F9C1
:10427000FAE7C046389A00000C9A000010B5FFF724
:1042800039FFFFF7E9FFFFF773FF0A20FFF7EAF9AD
:10429000F9E772B6FEE70000F0B5DE4657464E4637
:1042A0004546E0B595B0414B8021C90540F200126A
:1042B000592088504338885072308850013B13B1E0
:1042C0008A58002AF0D001F0E3FA40F2000A40F2E6
:1042D00000138022D2055146D150FFF7FBFE0FA8F4
:1042E000334C03002200A2CAA2C322CA22C331490E
:1042F000314B0B6053460B71E1235B0299468B6097
:1043000040F2240805254346CD5440F2250B193BC5
:104310005A468B540D734B730D774B770D754B7558
:10432000FFF786F9254B18600AA802002300143312
:10433000C2CBC2C242CB42C22149224B0B60FFF723
:1043400077F9214B186005A8020023002833C2CB5F
:10435000C2C242CB42C21D491D4B0B6001230B71EF
:104360004A468A60424656468E545A468B540B73D0
:104370001E3A4A730B774D770B7501324A7524321A
:104380008B5401328B54FFF753F9124B1860684677
:104390006A463C342ACC2AC20ACC0AC20021FFF762
:1043A00047F90D4B1860FFF73EF9FEE7001BB70019
:1043B000649A0000D46F0220000007401C700220A5
:1043C000787002207474000014700220447002207F
:1043D00000100740087002200C7002200022014BE0
:1043E0001A707047B72B02207047000070B50500A7
:1043F000002409E00C4E300000F0ACFE0A21300031
:1044000000F0A8FE0134A4B26B6B9C4207D22B6B68
:10441000195D0D29EED0044800F09CFEF2E7002261
:10442000024B1A7070BDC046B4780220B62B022031
:10443000F0B585B08368027900681B4903911B4978
:1044400002911B490191012600961A4901F00EFBC9
:10445000194D00242C70194F40F2D07218493800C1
:1044600000F063FE380000F063FE164F40F2D07299
:104470001549380000F059FE380000F059FE134F7E
:1044800040F2D0721249380000F04FFE380000F0C0
:104490004FFE104B1C70104B1C70104B1C702E707C
:1044A0000F4B1C7005B0F0BDE9430000ED43000068
:1044B000DD4300008070022089330220A0800220AA
:1044C000D0780220C4780220E4700220B478022060
:1044D000B82B0220B72B0220B62B0220752B02200E
:1044E000742B0220014B18607047C046FCD6022096
:1044F00070B504001A4B986A01214942FFF742F94E
:10450000184B1B7833B90A20FFF7ACF802E00A20F9
:10451000FFF7A8F8144B1B78012BF8D005E0134BDC
:104520001B780D2B0DD02C005BB1651C21780F4B37
:1045300019700D29F3D00029F1D00D4800F00AFEC2
:10454000EDE70B4C0D21200000F004FE0A212000B5
:1045500000F000FE024B986AFFF74AF970BDC046B2
:104560008070022089330220B72B02208F3802206E
:10457000C478022070B5FFF75BFF4B48FFF7B8FF28
:1045800000224A4B1A704A48C36D01324949984784
:1045900058B3FFF77EFE28E0474D2900474800F05A
:1045A00003FE2A78464B1A550134A4B2B442F3D321
:1045B0000122444B1A703E48036D2200404998473F
:1045C00020BB00223F4B1A703E4B1B780BB33E4B77
:1045D0001B781BB13B4B1B78002B43D03B4B1B780C
:1045E000002B52D10520FFF73DF8364B1B78002BEE
:1045F000EAD1324800F092FD0028E5D12F4800F0C2
:104600009BFD86B2002EDFD00024CFE7FFF741FEEE
:10461000D7E72F4800F082FD0028D8D12C4800F0C1
:104620008BFD86B2002ED2D0002409E0224D290055
:10463000274800F0B9FD2A78214B1A550134A4B25D
:10464000B442F3D301221F4B1A701948036D2200A4
:104650001B49984718B900221A4B1A70B7E7FFF7A1
:1046600018FEF8E70122174B1A701148036D194A1A
:1046700012881949984728B90023124A1370124A20
:104680001370ABE7FFF705FEF6E700230F4A137040
:10469000064A13700648C36D012206499847002850
:1046A000A0D0FFF7F6FD9DE7E89A0000B62B0220A8
:1046B000807002208C3302208E380220A0800220DD
:1046C000DC330220B72B022088330220742B022017
:1046D000C47802208C380220AC80022070B504001F
:1046E0000D00174B986A01214942FFF74BF802E091
:1046F0000A20FEF7B7FF134B1B78012BF8D0124BA3
:104700001B78012BF4D0002200E01A0021780F4B17
:104710009954531C9BB20134AB42F6D30B490D2084
:10472000C854023292B20A238B540235084B1D80C2
:104730000122054B1A70024B986AFFF759F870BDB9
:1047400080700220B72B022088330220AC80022028
:104750008C38022030B585B004000022835E012B26
:1047600008D0022B00D192E05A48FFF7C1FE00208A
:1047700005B030BD8378012B09D0022B0BD0032B61
:104780001AD0042B7FD05348FFF7B2FEEFE7524810
:10479000FFF7AEFEEBE75148836842680168846921
:1047A000029444690194006900904D4802F0D6F9E2
:1047B0004C48FFF79DFEDAE76C3002F0C7FA80B292
:1047C00002285CD90023002101E001339BB283421F
:1047D00007D2E2186C3212783A2AF6D10131C9B206
:1047E000F3E7052901D1112819D03A48FFF780FED7
:1047F000BDE7E2186C3211783B4AD15401339BB2C9
:10480000072BF6D938480D22C25401339BB2033A24
:10481000C2540821FFF762FF002209230AE00023A7
:10482000EEE7E1186C31087830498854013292B2D1
:1048300001339BB2102BF4D92C4D0D23AB54013214
:1048400092B2033BAB5408212800FFF747FF284AE8
:10485000111F1400083C244B200000F04FFD2200E3
:10486000183221001431200010302B0000F056FDCA
:104870002000FEF77BFA1B48FFF73AFE77E7154862
:10488000FFF736FE73E71348FFF732FE6FE78378D2
:10489000012B09D0022B0BD0032B0DD0042B0FD0F2
:1048A0000C48FFF725FE62E71248FFF721FE5EE79E
:1048B0000848FFF71DFE5AE70648FFF719FE56E7BE
:1048C000BFF34F8F0C4A0D4BDA60BFF34F8FC046DA
:1048D000FDE7C046F8960000249B000020700220EF
:1048E000409B00008C970000782B0220982B022020
:1048F00028700220609B00000400FA0500ED00E033
:10490000F0B5C64600B582B005000F0003780D2B48
:1049100000D16DE040F20008002301E001339BB2BA
:10492000EA5C0D2A35D040F213518B4206D82C2A6E
:10493000F4D14246013292B29046EFE700260024BD
:104940001FE040F24C437343FB185A54013189B2C3
:104950000134A4B22A5D2C2A06D040F213539C42A3
:1049600002D8222AEDD1F3E740F2135399420CD832
:10497000C73B7343FB1800225A540134A4B20136DA
:10498000B6B2B04508D90021E4E71A48FFF7B0FDF8
:10499000F3E700260024F4E7002101E00134A4B28B
:1049A0002A5D0D2A0DD040F213539C4209D8222AC9
:1049B000F4D040F24C437343FB185A54013189B28E
:1049C000ECE740F2135399420ED8C73B5E43BF1940
:1049D00000237B5443466A46D371D0790130C0B27C
:1049E00002B004BC9046F0BD0348FFF781FDF1E73B
:1049F0000020F5E7F89A0000109B000010B501F0C8
:104A00005DFB50B901F060FB70B10022074B1A70DA
:104A100001F060FBFEF76CFF06E00022044B1A7009
:104A200001F058FBFFF796FE10BDC0467A6E0220DB
:104A30007B6E0220F0B5C64600B582B00068FFF775
:104A400051FD02E00A20FEF70DFE2D4B1B78002BD6
:104A5000F8D02C48FFF74CFD0027002547E06B46B7
:104A6000D8791B2822D00D2823D00A2826D0002749
:104A70006B4607331B78244A53557F2B25D01B2BBD
:104A800001D00135ADB2022F24D00134A4B2444587
:104A900028D26B46DE1D31001C4800F085FB3178C2
:104AA0001B29DCD01A4800F055FBD8E7FEF714FFAD
:104AB000DEE7002FD9D10137FFB2D9E7012F01D0AE
:104AC0000027D5E70137FFB2D2E7002DD7D0013D4F
:104AD000ADB2D8E70C480023435501F089FA00270E
:104AE0000025D2E7FFF78AFF0A20FEF7BBFD074843
:104AF00000F022FB83B29846002BF3D00024C6E7D7
:104B000089330220D49A000054280220B47802206D
:104B1000A08002200022014B1A707047C53D022080
:104B2000704700000122014B1A737047BC450220F8
:104B300070B50500002406E02B6B195D054800F0F8
:104B400009FB0134A4B26B6B9C42F5D30022024BEB
:104B50001A7070BDEC9B0220C43D0220F0B585B0F8
:104B600000900191384800F0E7FA84B234B1002790
:104B70000025A54204D3002005B0F0BD0020FBE7CE
:104B800002ABDE1D3100304800F00EFB33780D2BF8
:104B90001CD00A2B23D00A2B2AD013B92B4A1288F7
:104BA000BAB33E2B2AD00021284A118000222AB90C
:104BB00027490A880098835401320A80234B1B88B6
:104BC000022B28D067BB0135ADB2D2E71F4A12884D
:104BD000012ADED801211D4A11800122E7E71B4A84
:104BE0001288012AD7D10221184A11800122DEE75A
:104BF000164A1288002AD0D10122D8E7134A128817
:104C0000002AD0D1124A1288002ACCD100220127D2
:104C1000CDE70122CBE700220C4B1A800127D1E718
:104C20000B4A13880D210098C15401339BB20339FC
:104C3000C15401339BB2C618002131700198038022
:104C40001180012098E7C046EC9B0220BA45022063
:104C5000DC45022010B50C4C0A220C49200000F063
:104C600064FA200000F064FA094C1022094920007F
:104C700000F05BFA200000F05BFA0023064A137094
:104C8000064A137010BDC046B83D0220C83D022040
:104C9000AC3D0220D43D0220B9450220B845022097
:104CA00010B5052805D1064BDB781BB90022044B53
:104CB0001A7010BD024B5B6808009847F6E7C046C3
:104CC000B88F0220F0B5C64600B505006C4902F069
:104CD0002BF8002800D185E02B78412B07D06949BB
:104CE000280002F021F840B9002603247CE06B780C
:104CF000542BF4D10026012476E06349280002F009
:104D000013F810B9002602246EE00B225F49280038
:104D100002F023F810B90126022465E06E235C4AF4
:104D2000D35C63B95B49280001F0FEFF002844D141
:104D300001216E23564AD154002600243FE06F2300
:104D4000534AD35C5BB95449280001F0EDFFD0BB56
:104D500001216F234E4AD154002600242FE07023F6
:104D60004B4AD35C5BB94D49280001F0DDFF68BBBD
:104D700001217023464AD154002600241FE0444BF1
:104D80005B7863B14649280001F0CEFF08B345497E
:104D9000280001F0C9FFF8B9002607240FE03C4BBA
:104DA0009B7843B1012605223F49280000F023FAF1
:104DB000A8B9052403E00026F5E700260024280012
:104DC00000F06BFA10E000260024F8E7002600242B
:104DD000F5E700260724F2E701260424EFE7002682
:104DE0000524ECE700260024231FDBB2012B07D9A2
:104DF0002E4B1C70002C37D1200004BC9046F0BD17
:104E0000012E08D0052C01D0082CF1D1290020005A
:104E1000FFF746FFECE7264800F0E0F90128F1DD56
:104E2000244F3B789846244E40F2DD53424653438C
:104E30002249C91840F2DD52300001F01EFB3470E7
:104E4000701C290001F07AFF4146194800F082F9F0
:104E50003B780133DBB20A22B3FBF2F18A0052182D
:104E600051005B1A3B70CDE7154800F0B7F90128F7
:104E7000C2DD0E4B1978124800F06CF9BCE7C04651
:104E8000D49B0000809B0000889B0000909B00004A
:104E9000B88F02209C9B0000AC9B0000BC9B0000D4
:104EA000C89B0000CC9B0000D89B0000B9450220A5
:104EB000B83D0220B845022030900220F89B022025
:104EC000AC3D022010B584B08368027900681549B2
:104ED000039115490291154901910121009114494D
:104EE00000F0C4FD134C40F2D0721349200000F0D2
:104EF0001CF9200000F01CF90023104A1370104A1E
:104F00001370104A1370104A1380104A1380104A0D
:104F10001380FFF79FFE0F4A01210F4800F0D8F8D9
:104F200004B010BD214B0000314B0000154B0000B8
:104F30009CD60220EC9B0220E83D0220C53D0220C9
:104F4000C43D022090380220DC450220BA450220F0
:104F5000A44F0220254B0000BC45022010B5454C53
:104F60002060027B9201437B9B009B18424A94463F
:104F700063440361017D8901427D920052186244BD
:104F80008261017F8901427F92005218624402626D
:104F90002422815C89010132825C920052186244B1
:104FA00082622C22815C89010132825C920052185B
:104FB0006244026301221A6023689A690023136025
:104FC0002268126A13602D4A6E21535401315354E2
:104FD000013153542A48FFF78BFA2068FFF772FF1C
:104FE0002848C36D01222849984790B1FFF751F92D
:104FF0000FE00023254A1370254A1370254B1B78B8
:10500000EBB925492548FFF7A9FD38BB0A20FEF773
:1050100029FB1E4B1B78002BF0D11D4B1B78002B5E
:10502000ECD00122194B1A701648036D1C4A1288E5
:105030001C4998470028DCD0FFF72BF9D9E700235B
:10504000144A1370184A13700E48C36D01220E499A
:1050500098470028D5D0FFF71CF9D2E70E4B1988E6
:105060000E4C2000FFF72EFE2000FFF741FA002330
:105070002370CBE72C90022000480040B88F02201C
:105080006C9B00009CD6022010960220C53D022099
:10509000C63D022090380220A44F0220E0450220A5
:1050A000A83D022094380220C43D0220007B7047B6
:1050B00010B50023037381600068FEF7EDFA10BDA0
:1050C00010B5002303730068FEF718FB10BD000045
:1050D00010B582B00400A9B9002303710023237323
:1050E000E26101922179002201A8FEF7C3FA206053
:1050F00058B1074B2361074B6361074BA361012044
:1051000002B010BD01230371E8E70220F8E7C046B2
:10511000B1500000C1500000AD500000C38880882D
:10512000181A43425841C0B270470160028170476B
:1051300000238380C3807047C28883889A4206D048
:1051400003D800899B1AC01A7047D01AFCE70020C8
:10515000FAE7000070B58388BBB1C288013B0489BF
:1051600093FBF4F56C431B1BD31A5C425C41E3B226
:10517000A3B9C3880268D154C3880133028993FB61
:10518000F2F14A439B1AC38070BDC2880489E318B8
:10519000013BD31A5C425C41E3B2E9E70148FFF707
:1051A000A7F9F1E7089C000010B5C28883889A42ED
:1051B0000CD00268D35C0B7083880133028993FBA7
:1051C000F2F14A439B1A8380012010BD0248FFF789
:1051D0008FF90020F9E7C046E09B0000C288838871
:1051E0009A4202D003D8981A70470089FCE70189D7
:1051F000D01A081AF8E730B50023934207D2CC5CE6
:105200002CB1C55CAC4202D101339BB2F5E79342AD
:1052100001D0002030BD0120FCE710B5002302E0E2
:10522000025501339BB21C00CA5C0AB10D2AF7D1AA
:10523000001900220270180010BD10B5002301E013
:1052400001339BB2C25C8AB10D2AF9D1002204E07D
:10525000C45401339BB2013292B28C5C0CB10D2C60
:10526000F6D1C01800220270D8B210BD0022F4E7B7
:10527000002301E001339BB2C21811780029F9D153
:105280000D3111705A1C92B20339815402339BB212
:10529000C01800220270D8B27047002301E0013329
:1052A0009BB2C21811780D29F9D100211170D8B222
:1052B000704710B50C00022302E03732C2540C09CB
:1052C00043B10F222240013BDBB2092AF5D830322C
:1052D000C254F4E70D338370033BC37010BD0B78E9
:1052E000303B0F2213404A7832B10D2A04D01B0103
:1052F000303A0F210A4013430370704770B50E0017
:1053000015001C001900FFF7EAFFE11C3000FFF751
:10531000E6FFA11D2800FFF7E2FF70BD70B50E008B
:1053200015001C001900FFF7DAFFE11C3000FFF741
:10533000D6FFA11D2800FFF7D2FF70BD70B5820017
:10534000484BD45814B12379984200D070BD2568D9
:10535000296948F2000399420ED000296FD0013923
:1053600040F26813E658B14254D229690139C9B2F2
:105370002800FCF7C5FFE9E76B68DB060ED56B6814
:10538000102293436B60E368012B28D040F27C131A
:10539000E358042201214942200098476B681B070B
:1053A0000ED56B68082293436B60E368012B26D00F
:1053B000022240F27813E358012149422000984725
:1053C0006B685B061DD46B681B06BFD540F280136B
:1053D000E35807220121494220009847B6E7C73326
:1053E000E1582800FCF7A4FE38B9052240F27C13EE
:1053F000E358002120009847D0E70122F6E7002279
:10540000D7E740F28013E3580622012149422000E9
:105410009847D8E78E1B330032339B001A59280077
:10542000FCF75CFFA3194933FF3302221A7040F2E4
:105430007C13E358013231002000984795E740F291
:105440006C13EB58012B00D080E700226C33FF3344
:10545000EA501033E35808320121494220009847AE
:1054600074E7C046A84F022082000F4BD35813B1F7
:105470001A79904200D070471B6801290CD039B1CD
:1054800002290DD00329F6D10821F8229950F2E71C
:105490000121F8229950EEE70221F8229950EAE71B
:1054A0000421F8229950E6E7AC4F022070B5820043
:1054B0000A4BD45814B12378984200D070BDA2682A
:1054C000012595406368196A114202D01A6A1A626E
:1054D000F4E7E368984763681D62EFE7B44F022082
:1054E0000A31890041184B6800221A6070470A315E
:1054F000890041184B6801221A607047F0B5CE460A
:1055000000B582B004000E00019191461D00089F75
:1055100001214942806EFEF735F931002000FFF786
:10552000DFFF4B462365E5652068FDF7F1FE206847
:10553000FDF7E8FE0026BE4217D223685A6992039F
:10554000F9D44A46925D1A622168154B1B684A6974
:10555000D20705D5013B002BF9D1124801F072FBAF
:1055600023681B6BAB550136E5E721680C4B1B68C4
:105570004A69D20705D5013B002BF9D1094801F052
:1055800061FBA665666601992000FFF7B0FFA06E7B
:10559000FEF72EF9002002B004BC9146F0BDC046D3
:1055A00010100020349C0000F0B583B005000E0000
:1055B000019114001F0001214942806EFEF7E2F8BC
:1055C0002868FDF7A5FE2868FDF79CFE310028003D
:1055D000FFF786FF0026BE4213D22B685A6992035A
:1055E000F9D4A25D1A622968124B1B684A69D20776
:1055F00005D5013B002BF9D10F4801F023FB013603
:10560000E9E729680B4B1B684A69D20705D5013BBE
:10561000002BF9D1084801F015FBAE6500236B663D
:1056200001992800FFF763FFA86EFEF7E1F800205C
:1056300003B0F0BD10100020349C0000F0B585B020
:105640000C00160003930AAB1F78002800D1CFE0AE
:10565000002A00D1CEE08B00674A9B5813B104208A
:1056600005B0F0BD0D9B082B01D90420F8E70023FD
:1056700007E01A000A329200B2180021516001338B
:10568000DBB20D9A9A4215D9D9000C9A944661441E
:105690000D78052DEDD04A780B2AEAD0A9019200A9
:1056A000521856498C46624419000A318900711813
:1056B0004A60E4E730606B461B7B73710B9BB36001
:1056C000B7710E9B336730006C300121FEF744F850
:1056D000B0664B4B73674B4BB3673471A300464ABC
:1056E0009E50012C25D02CB1022C41D0032C5FD030
:1056F0000420B5E7444C2000FCF726FF00222021BF
:105700002000FCF7B1FE4148FDF71AFE404C0B9B10
:1057100000933B00039A00212000FDF7CFFB2000FF
:10572000FDF7FCFD022202212000FDF7FDFD012016
:1057300096E7384C2000FCF707FF0022802120006C
:10574000FCF792FE3448FDF7FBFD344C0B9B0093B5
:105750003B00039A00212000FDF7B0FB2000FDF77D
:10576000DDFD022202212000FDF7DEFD012077E7AA
:105770002B4C2000FCF7E8FE002240F60001200040
:10578000FCF772FE2748FDF7DBFD274C0B9B0093CF
:105790003B00039A00212000FDF790FB2000FDF75D
:1057A000BDFD022202212000FDF7BEFD012057E7CA
:1057B0001E4C2000FCF7C8FE002242F2000120002F
:1057C000FCF752FE1A48FDF7BBFD1A4C0B9B0093E9
:1057D0003B00039A00212000FDF770FB2000FDF73D
:1057E0009DFD022202212000FDF79EFD012037E7EA
:1057F000042035E7042033E7CC4F02200048004066
:10580000A9550000FD5400000D0040660D00000485
:10581000001006400E0060660E00000400200640E6
:105820000F00A0660F000004003006400600C0A66E
:1058300006000008004006408023DB059A6D0449FD
:105840000A409A65996DAA2212040A439A65704724
:10585000FFFF00FF8023DB059A6D04490A409A652B
:105860009A6D4AF600210A439A657047FF00FFFFD0
:1058700010B50220FCF760FE0220FCF775FE03481D
:10588000FCF762FE0020FDF7D3FA10BD01000040D6
:1058900010B5FFF7DFFF0720FCF74EFE1320FCF7E3
:1058A00063FE0848FCF7E6FF074C2000FCF74CFEBF
:1058B000002200212000FCF7D7FDFFF7BDFFFFF716
:1058C000D7FF10BD00D8B805103D006F70B50400BB
:1058D0000D00160001214942806AFDF753FF55B1C2
:1058E0002662E56102212068FDF740FDA06AFDF710
:1058F0007FFF002070BD0120FCE770B504000D00A3
:10590000160001214942C06BFDF73CFF55B16663AB
:10591000256301212068FDF729FDE06BFDF768FF95
:10592000002070BD0120FCE770B504000D001600DA
:1059300001214942806AFDF725FFE5B10021B1420E
:1059400017D2685C0D4BE2681A6023689A691202EC
:105950000BD50A4A1368013B1360002BF5D10325D0
:10596000A06AFDF745FF280070BD1860013189B2BB
:10597000E5E70025F4E70125F2E7C046DC4F022009
:1059800070B504000E00150001214942C06BFDF7FF
:10599000F9FE00200100A84214D22368DA69D20778
:1059A0000BD4E368013B084A1360002BF5D10325B3
:1059B000E06BFDF71DFF280070BD1B6873540130BC
:1059C00080B2E7E70025F3E7DC4F022070B58200E4
:1059D000244BD65816B13379984200D070BD346844
:1059E0009CB1214BF2681A600023E269D2070AD504
:1059F0001D490A68013A0A602AB12268316BCA540B
:105A000001339BB2F1E77363CBB9E3699B0522D500
:105A1000154BF2681A60318C0023736200258D42A9
:105A200011D2114A1368013B136063B1F3695A5DE7
:105A3000A3691B02FCD422600135ADB2EFE7300050
:105A4000B36C9847E1E702212000FDF78BFC7562FB
:105A5000736C30009847A36971221A42BED071233B
:105A6000A361BBE7E04F0220DC4F022070B50C00C1
:105A700015001E00002800D1D8E0002900D1D7E091
:105A800093006D4A9B580BB1042070BD42F28053C5
:105A90009E421DD044F600339E4219D049F2006365
:105AA0009E4215D04EF200139E4211D0E1235B02BC
:105AB0009E420DD0E1239B029E4209D0E123DB02EE
:105AC0009E4205D0E1231B039E4201D00420DCE767
:105AD000A6605A4B1B68049A5343E3602060059B01
